:1000000054C093C06CC06BC06AC069C068C067C090
:1000100066C065C064C063C062C061C060C05FC0CC
:100020005EC05DC05CC000CDD914F13C28E5A16C78
:1000300078B5509D89440A0330003000300031000B
:100040002203550053004200740069006E007900DD
:100050002000540065006D0070006C0061007400A9
:10006000650020034400690063006B00200053001A
:10007000740072006500650066006C0061006E002F
:100080006400040309040902120001010080190937
:1000900004000000FF00000012011001FF00000832
:1000A0006666010005010102030111241FBECFEDA8
:1000B000CDBF10E0A0E6B0E0E2ECF5E003C0C895EB
:1000C00031960D92A236B107D1F710E0A2E6B0E06A
:1000D00001C01D92AA39B107E1F76BD271C290CF6E
:1000E000DC019FEF8FEF46E2F0E018C02D918227F0
:1000F000E82FEF70E40F3591E82FE295892F932FC9
:100100003170E327EF709295392F9F70307E8327EF
:10011000E40F359193273170932783276A9532F73F
:10012000809590958D939D9308950F931F932F9392
:10013000DF93CF930FB70F938299FECF82990BC0B5
:10014000829909C0829907C0829905C0829903C02B
:1001500000E40ABFB9C0C0918100DD27CE57DF4F50
:100160000BE014E124E0829BE9CF3F934F936F9320
:1001700060B330E803C060B3432B499344276471F4
:100180002627215020B32471A9F137953C3FA0F5D3
:100190006227615060B3647137953C3F98F526271C
:1001A0002150379520B324713C3F90F56227615070
:1001B00037953C3F60B36471A0F5262721503795F1
:1001C0003C3FC8F520B324716227615037953C3F0E
:1001D000B0F50A9560B37AF06471262721503795FF
:1001E0003C3F88F520B324716227615037953C3F2E
:1001F00010F22DC031C05FC0612720B324713F775A
:100200004160C6CF3F77426060B364712127C7CF9A
:100210003F774460612720B324716227615037958E
:10022000C8CF3F7748602127316060B364712627CB
:1002300021503795C6CF3F7740616127C1CF3F77C7
:1002400040622127C4CF3F7740646127C9CF3F7701
:100250004068212700C08FCF30E43ABF0B50019592
:10026000C01BD040288121FD3AC06981162F1F771D
:10027000409198001417F9F42936F1F467FB76F4ED
:10028000000000919900002339F14091800044233F
:1002900019F540939900C5E7D0E038C00091670098
:1002A0000023D1F0409180004423B1F440936700D3
:1002B000C8E6D0E02BC02227209362006F914F91B7
:1002C0003F910AB706FD38CF0F910FBFCF91DF9155
:1002D0002F911F910F911895C1E6D0E016C02170A3
:1002E00059F320916200222339F340918000442386
:1002F00099F70093800020937400009181004BE0F7
:10030000401B40938100C0E6D0E001E022B32B7E89
:10031000206111B3146122BB11BB14E130E830FF3E
:10032000212722BB379547954C3FC0F530FF212749
:10033000379522BB47954C3FA8F530FF21273795CD
:10034000000022BB47954C3F78F530FF21273795B9
:10035000000022BB47954C3F48F530FF21276991AB
:1003600022BB379547954C3F18F530FF212737952D
:1003700022BB47954C3F00F530FF21273795479525
:1003800022BB4C3FD8F430FF21273795362F4795B5
:1003900022BB4C3FA8F40A9512F614C0212744272B
:1003A00022BBC2CF2127C5CF2127CBCF2127D1CF39
:1003B0002127442722BBD7CF2127DACF2127DFCF20
:1003C0002127E5CF2B7E22BB6F914F913F9100E417
:1003D0000ABFDF91CF9111B3022F206122BB1B7E98
:1003E000DFBFDF912F91000011BB02BB1F910F9166
:1003F0004F9340917300409398004F91189585B7A3
:10040000836085BF8BB780648BBF8D9A939A8B9ADC
:10041000789408951F93CF93DF9380918000882371
:1004200009F470C0809181009927CC27DD27C81B73
:10043000D90BC257DF4F21E02093630090E08091F9
:1004400074008D3209F055C01E818F8181111FEF1C
:100450008881807609F042C08981882319F492E06E
:10046000888340C0853029F48A8180937300959AEF
:100470003CC0863051F582E0809363008B818130EF
:1004800019F4C8E9D0E004C0823021F4C6E8D0E015
:1004900092E128C0833049F58A81882321F4C2E89B
:1004A000D0E094E01FC0813021F4C2E6D0E090E2B9
:1004B00019C0823021F4C0E4D0E092E213C083304E
:1004C000A1F4C6E3D0E09AE00DC0883011F428838F
:1004D00003C08A3051F49883922F04C08C2F9D2F33
:1004E00065D0982F191708F4912FD0936600C09308
:1004F00065009093640083EC80936800109267001D
:100500001092800020916700222309F03DC04091A5
:1005100063004423C9F18091680098E8892780939B
:100520006800C09164003C2FC93008F0C8E0A9E61B
:10053000B0E0CC23E9F0E0916500F0916600413035
:1005400039F4922F9C1768F481918D939F5FFACFB5
:10055000922F9C1730F4C895802D31968D939F5F14
:10056000F8CFF0936600E09365003C1B3093640085
:100570006C2F89E690E0B4DDCD5FC0936700C35077
:10058000C83010F4109263008AE084990BC0815047
:1005900011F0849BFCCF882329F48093730080930F
:1005A00098009598DF91CF911F91089588E090E091
:1005B0000895CFEDD0E0DEBFCDBF21DF2BDFFECF32
:0205C000FFCF6B
:0205C200D25A0B
:00000001FF
