:10000000C8C2E3C2E2C2E1C2E0C2DFC2DEC2DDC2F8
:10001000DCC2DBC2DAC2D9C2D8C2FDC2D6C2D5C2E6
:10002000D4C2D3C2D2C200CDD914F13C28E5A16C10
:1000300078B5509D89440A0330003000300031000B
:1000400020034B006500790062006F0061007200C0
:100050006400530070006F006F006600650072005E
:100060001C034500640077006100720064002000FA
:1000700048006F006C0065007400730004030904FD
:100080000902220001010080190904000001030196
:100090000100092111012101224100070581030806
:1000A000000A120110010000000866660100050147
:1000B0000102030105010906A101050719E029E76D
:1000C00015002501750195088102950175088101CA
:1000D000950575010508190129059102950175031A
:1000E000910195067508150026FF00050719002ADD
:1000F000FF008100C0E9040E0005041300DD012E9D
:1001000000050112001900000002001700000000A5
:10011000001900000000000B0000000000190000A2
:100120000000000800000000001900000000002C82
:1001300000000000001900000002000F0000000095
:10014000001900000000000C000000000019000071
:100150000000001900000000001900000000000C61
:100160000000000000190000000000110000000065
:10017000001900000000000A000000000019000043
:100180000000002C00000000001900000002000721
:10019000000000000019000000000008000000003E
:1001A0000019000000000004000000000019000019
:1001B00000000007000000000019000000020038E5
:1001C0000000000000881300000000000000000094
:1001D00000FFFFFFFF00000000000000001900000A
:1001E00000000028000000000019000000000000CE
:1001F00000000000001900000000002800000000BE
:10020000001900000000002C000000000019000090
:100210000000000000000000001900000000002C99
:10022000000000000019000000020026000000008D
:10023000001900000000001B000000000019000071
:100240000002002600000000001900000000001B52
:1002500000000000001900000002002D0000000056
:100260000019000000020026000000000019000034
:100270000002001B00000000001900000002002D19
:1002800000000000001900000000001B000000003A
:100290000019000000020026000000000019000004
:1002A0000002001200000000001900000002002DF2
:1002B0000000000000190000000000120000000013
:1002C00000190000000200270000000000190000D3
:1002D0000000001B00000000001900000002002DBB
:1002E00000000000001900000000001B00000000DA
:1002F00000190000000200270000000000190000A3
:100300000002002D00000000001900000002001B88
:10031000000000000019000000020027000000009B
:10032000001900000000001B000000000019000080
:100330000002002700000000001900000000002C4F
:1003400000000000001900000002001E0000000074
:10035000001900000000000000000000001900006B
:100360000002001E00000000001900000000002C28
:1003700000000000001900000002001D0000000045
:100380000019000000020012000000000019000027
:10039000000200100000000000190000000200052B
:1003A00000000000001900000002000C0000000026
:1003B0000019000000020008000000000019000001
:1003C00000020016000000000019000000000028D4
:1003D0000000000000190000000000000000000004
:1003E0000019000000000028000000000050C300B9
:1003F000000000000000000000FFFFFFFF00000001
:1004000000000000001900000002000C00000000C5
:100410000019000000000011000000000019000099
:100420000000002C00000000001900000002001C69
:100430000000000000190000000000120000000091
:100440000019000000000018000000000019000062
:100450000000001500000000001900000000002C42
:10046000000000000019000000020006000000006B
:100470000019000000000012000000000019000038
:100480000000001000000000001900000000001330
:10049000000000000019000000000018000000002B
:1004A0000019000000000017000000000019000003
:1004B0000000000800000000001900000000001506
:1004C00000000000001900000002001E00000000F3
:1004D00000881300000000000000000000FFFFFF84
:1004E000FF00000000000000001900000002000BE7
:1004F00000000000001900000000000800000000DB
:10050000001900000000000F0000000000190000AA
:100510000000000000000000001900000000000FB3
:1005200000000000001900000000001200000000A0
:10053000001900000000002C00000000001900005D
:100540000002001A00000000001900000000001264
:10055000000000000019000000000015000000006D
:10056000001900000000000F00000000001900004A
:1005700000000007000000000088130000000000D9
:100580000000000000FFFFFFFF000000000000006F
:10059000000011241FBECFE5D2E0DEBFCDBF10E0CA
:1005A000A0E6B0E0ECE6F1E103C0C89531960D920B
:1005B000AC36B107D1F710E0ACE6B0E001C01D9257
:1005C000A53CB107E1F707D5D0C51ACDDC019FEFF7
:1005D0008FEF46E2F0E018C02D918227E82FEF70F0
:1005E000E40F3591E82FE295892F932F3170E3279F
:1005F000EF709295392F9F70307E8327E40F3591ED
:1006000093273170932783276A9532F780959095C9
:100610008D939D9308950F931F932F93DF93CF9303
:100620000FB70F93CA99FECFCA990BC0CA9909C0D8
:10063000CA9907C0CA9905C0CA9903C000E80ABF91
:10064000B9C0C091AC00DD27C355DF4F0BE014E407
:1006500024E0CA9BE9CF3F934F936F9369B330E88F
:1006600003C069B3432B4993442764742627215060
:1006700029B32474A9F137953C3FA0F56227615056
:1006800069B3647437953C3F98F526272150379518
:1006900029B324743C3F90F56227615037953C3F65
:1006A00069B36474A0F52627215037953C3FC8F5FF
:1006B00029B324746227615037953C3FB0F50A9501
:1006C00069B37AF064742627215037953C3F88F54A
:1006D00029B324746227615037953C3F10F22DC036
:1006E00031C05FC0612729B324743F774160C6CF12
:1006F0003F77426069B364742127C7CF3F77446076
:10070000612729B32474622761503795C8CF3F779A
:1007100048602127316069B36474262721503795DA
:10072000C6CF3F7740616127C1CF3F774062212725
:10073000C4CF3F7740646127C9CF3F774068212706
:1007400000C08FCF30E83ABF0B500195C01BD0409E
:10075000288121FD3AC06981162F1F774091C3007F
:100760001417F9F42936F1F467FB76F400000091D0
:10077000C400002339F14091AB00442319F54093A4
:10078000C400C0EAD0E038C0009192000023D1F04C
:100790004091AB004423B1F440939200C3E9D0E010
:1007A0002BC0222720936C006F914F913F910AB785
:1007B00007FD38CF0F910FBFCF91DF912F911F9180
:1007C0000F911895C1E6D0E016C0217059F3209121
:1007D0006C00222339F34091AB00442399F7009336
:1007E000AB0020939F000091AC004BE0401B409376
:1007F000AC00C0E6D0E001E02BB32B7B20641AB341
:1008000014642BBB1ABB14E430E830FF21272BBB48
:10081000379547954C3FC0F530FF212737952BBBC7
:1008200047954C3FA8F530FF2127379500002BBB9B
:1008300047954C3F78F530FF2127379500002BBBBB
:1008400047954C3F48F530FF212769912BBB3795E1
:1008500047954C3F18F530FF212737952BBB47951F
:100860004C3F00F530FF2127379547952BBB4C3F78
:10087000D8F430FF21273795362F47952BBB4C3FB7
:10088000A8F40A9512F614C0212744272BBBC2CF27
:100890002127C5CF2127CBCF2127D1CF21274427FF
:1008A0002BBBD7CF2127DACF2127DFCF2127E5CFD9
:1008B0002B7B2BBB6F914F913F9100E80ABFDF91DB
:1008C000CF911AB3022F20642BBB1B7BDFBFDF91BC
:1008D0002F9100001ABB0BBB1F910F914F934091BA
:1008E0009E004093C3004F911895A0E0B0E0EAE766
:1008F000F4E0E4C3D92FC82FE880F9800A811B8176
:10090000E114F1040105110541F484E2E82E89EDBA
:10091000F82E8BE5082F87E0182F912F802F7F2D41
:100920006E2D2DE133EF41E050E0A5D3A22EB32E82
:10093000C42ED52E912F802F7F2D6E2D2DE133EFDC
:1009400041E050E098D3B92FA82F972F862F27EAA0
:1009500031E440E050E0682F792F8A2F9B2F70D32D
:10096000E62EF72E082F192F24E13BE040E050E05F
:100970009D2D8C2D7B2D6A2D63D3B92FA82F972FFA
:10098000862FE81AF90A0A0B1B0B17FF08C08FEF16
:100990009FEFAFEFBFE7E80EF91E0A1F1B1FE882AB
:1009A000F9820A831B838FEF9FEFAFEFBFE7E82247
:1009B000F9220A231B23912F802F7F2D6E2DEAE031
:1009C000CDB7DEB797C391DFB92FA82F972F862F0A
:1009D000682F792F8A2F9B2F089588E690E085DF76
:1009E000B92FA82F972F862F682F792F8A2F9B2F0B
:1009F0000895B92FA82F972F862F80936800909382
:100A00006900A0936A00B0936B00089585B7836076
:100A100085BF8BB780688BBFD09ADF9AD79A7894BE
:100A200008950F931F93CF93DF936091AB006623DC
:100A300009F483C08091AC009927CC27DD27C81B1F
:100A4000D90BC754DF4F635091E090936E0010E0D4
:100A500080919F008D3209F062C00E818F818111DB
:100A60000FEF8881807609F049C08981882319F4C5
:100A700012E088834CC0853029F48A8180939E00DF
:100A8000D89A48C0863089F582E080936E008B81C9
:100A9000813021F4C2EAD0E012E139C0823021F481
:100AA000C0E8D0E012E233C0823221F4C4EBD0E0DF
:100AB00011E42DC0833071F58A81882321F4CCE7BD
:100AC000D0E014E024C0813021F4C0E6D0E01CE185
:100AD0001EC0823021F4C0E4D0E010E218C08330A0
:100AE000C9F4C6E3D0E01AE012C0883011F498834C
:100AF00003C08A3079F41883192F09C08C2F9D2FD9
:100B0000B6D0182F8F3F19F483E080936E00011741
:100B100008F4102FD0937100C093700005C06623B5
:100B200019F08C2F9D2F0AD110936F0083EC8093C6
:100B30009300109292001092AB00309192003323F8
:100B400009F047C020916E00222309F442C0809131
:100B5000930098E8892780939300C0916F00C93073
:100B600008F0C8E0A4E9B0E0CC2339F1233031F437
:100B70006C2F8A2F9B2FCDD0C82F1AC0E091700008
:100B8000F0917100213039F4932F9C1768F4819112
:100B90008D939F5FFACF932F9C1730F4C895802DCB
:100BA00031968D939F5FF8CFF0937100E0937000C2
:100BB00080916F008C1B80936F006C2F84E990E014
:100BC00005DDCD5FC0939200C350C83010F4109281
:100BD0006E008AE0CE990BC0815011F0CE9BFCCF05
:100BE000882329F480939E008093C300D898DF91D6
:100BF000CF911F910F910895CF93DF93282F392F15
:100C0000F8941092C400789480916D00882339F490
:100C100083EC8093A00081E080936D0006C08091FA
:100C2000A00098E889278093A000C0E0D0E0772753
:100C3000C617D7076CF4A1EAB0E0F32FE22F819139
:100C40008D932196C617D7071CF4CB30D105BCF382
:100C50006C2F81EA90E0BADCF8948C2F8D5F809342
:100C6000C40078948C2F9927DF91CF910895CF936A
:100C7000DF93D92FC82F80919100882361F481E000
:100C80008093910082B79927AA27BB27682F792FD5
:100C90008A2F9B2FAEDE898199278330910509F138
:100CA0008430910534F48130910561F00297B1F000
:100CB0002BC08A309105D9F08B3091052CF10B9720
:100CC000D1F022C08A818130F9F480918900888333
:100CD00080918A00898382E090E018C0809166004C
:100CE00002C080916700888381E090E00FC08A8114
:100CF0008093660009C090E08A81882311F48B817B
:100D0000811191E09093670080E090E0DF91CF91B6
:100D10000895F92FE82F20E030E0462F55272417BB
:100D200035074CF4A9E8B0E08D9181932F5F3F4FD8
:100D300024173507CCF3822F99270895089588E169
:100D400083BF8CE183BF81E085BB12BE8FE283BB92
:100D500080E188BF89B78F7E89BF83B78F7E83BFCD
:100D6000089508B604FE3BC080E188BF80918500ED
:100D700090918600A0918700B09188000196A11DF6
:100D8000B11D8093850090938600A0938700B09357
:100D900088008091810090918200A0918300B091A1
:100DA00084000196A11DB11D809381009093820063
:100DB000A0938300B093840080917D0090917E0089
:100DC000A0917F00B09180000196A11DB11D80937C
:100DD0007D0090937E00A0937F00B09380000895E3
:100DE00080917C00882379F068E089E890E004DF56
:100DF0001092810010928200109283001092840061
:100E000010927C00D19A80916600882321F1992765
:100E1000880F991F880F991F282F392F442737FDD6
:100E20004095542F8091810090918200A091830081
:100E3000B091840082179307A407B50760F068E0BB
:100E400089E890E0D9DE1092810010928200109221
:100E500083001092840008954091780050917900A9
:100E6000440F551F440F551F4B505F4F5093750053
:100E700040937400F52FE42FC895802D3196C895C6
:100E8000902D9093730080937200F52FE42F32968B
:100E9000C895802D3196C895902D909377008093BA
:100EA000760008958091850090918600A09187003A
:100EB000B0918800209162003091630040916400FD
:100EC0005091650082179307A407B50708F480C006
:100ED0002E5F3F4F4F4F5F4F09F47AC020917A0049
:100EE00030917B00932F822F6CE070E097D040917F
:100EF000720050917300480F591FF52FE42FC895C9
:100F0000802D3196C895902D3196C895A02D31969B
:100F1000C895B02D8093620090936300A093640005
:100F2000B09365008F5F9F4FAF4FBF4F39F555DDD1
:100F3000B92FA82F972F862FA070B07080936200D2
:100F400090936300A0936400B093650010928500B5
:100F500010928600109287001092880010927B00F9
:100F600010927A003ADDB92FA82F972F862F837021
:100F7000907090937900809378006ECFF52FE42FD6
:100F80003496A9E8B0E0C895802D8D93319680E025
:100F9000A039B807C1F3B8F310928500109286000B
:100FA000109287001092880081E080937C002F5F70
:100FB0003F4F30937B0020937A0080917600909190
:100FC00077002817390720F010927B0010927A00E2
:100FD000089542CF0895CFE5D2E0DEBFCDBFD99AC4
:100FE000D09A14DDF6DFABDE1CDDBBDEF9DE5ADFA6
:100FF00080917D0090917E00A0917F00B091800053
:101000000597A105B10580F3D19810927D0010924B
:101010007E0010927F0010928000E6CF55270024BA
:1010200080FF02C0060E571F660F771F61157105FE
:1010300021F096958795009799F7952F802D089523
:10104000FF27EE27BB27AA2760FF04C0A20FB31F0C
:10105000E41FF51F220F331F441F551F96958795D8
:101060007795679589F70097760771F79F2F8E2FF1
:101070007B2F6A2F089597FB092E05260ED057FD6A
:1010800004D04CD00AD0001C38F4509540953095CF
:1010900021953F4F4F4F5F4F0895F6F790958095FC
:1010A000709561957F4F8F4F9F4F08952F923F927C
:1010B0004F925F926F927F928F929F92AF92BF9268
:1010C000CF92DF92EF92FF920F931F93CF93DF9314
:1010D000CDB7DEB7CA1BDB0B0FB6F894DEBF0FBE71
:1010E000CDBF09942A88398848885F846E847D84BE
:1010F0008C849B84AA84B984C884DF80EE80FD80C0
:101100000C811B81AA81B981CE0FD11D0FB6F89435
:10111000DEBF0FBECDBFCA2FDB2F0895A1E21A2E6E
:10112000AA1BBB1BEA2FFB2F0DC0AA1FBB1FEE1F64
:10113000FF1FA217B307E407F50720F0A21BB30BAC
:10114000E40BF50B661F771F881F991F1A9469F728
:101150006095709580959095262F372F482F592FA1
:0C1160006A2F7B2F8E2F9F2F0895FFCF4A
:0C116C00D25AE02E00007D0101000000BE
:00000001FF
