:1000000044C15FC15EC15DC15CC15BC15AC159C120
:1000100058C157C156C155C154C179C152C151C10E
:1000200050C14FC14EC100CDD914F13C28E5A16C9F
:1000300078B5509D89440A0330003000300031000B
:1000400020034B006500790062006F0061007200C0
:100050006400530070006F006F006600650072005E
:100060001C034500640077006100720064002000FA
:1000700048006F006C0065007400730004030904FD
:100080000902220001010080190904000001030196
:100090000100092111012101224100070581030806
:1000A000000A120110010000000866660100050147
:1000B0000102030105010906A101050719E029E76D
:1000C00015002501750195088102950175088101CA
:1000D000950575010508190129059102950175031A
:1000E000910195067508150026FF00050719002ADD
:1000F000FF008100C0E1010E00FD001300190000A7
:100100000002000C000000000019000000000011B7
:1001100000000000001900000000002C000000009A
:10012000001900000002001C00000000001900007F
:10013000000000120000000000190000000000187C
:100140000000000000190000000000150000000081
:10015000001900000000002C000000000019000041
:10016000000200060000000000190000000000125C
:100170000000000000190000000000100000000056
:10018000001900000000001300000000001900002A
:100190000000001800000000001900000000001717
:1001A000000000000019000000000008000000002E
:1001B00000190000000000150000000000190000F8
:1001C0000002001E00000000008813000000000074
:1001D0000000000000FFFFFFFF0000000000000023
:1001E000001900000002000B0000000000190000D0
:1001F0000000000800000000001900000000000FCF
:1002000000000000001900000000000000000000D5
:10021000001900000000000F00000000001900009D
:100220000000001200000000001900000000002C77
:1002300000000000001900000002001A0000000089
:10024000001900000000001200000000001900006A
:100250000000001500000000001900000000000F61
:10026000000000000019000000000007000000006E
:1002700000881300000000000000000000FFFFFFE6
:10028000FF00000000000000000011241FBECFE5A9
:10029000D2E0DEBFCDBF10E0A0E6B0E0EEEEFBE0C6
:1002A00003C0C89531960D92A836B107D1F710E07A
:1002B000A8E6B0E001C01D92AA3BB107E1F762D405
:1002C00095C49ECEDC019FEF8FEF46E2F0E018C0B0
:1002D0002D918227E82FEF70E40F3591E82FE295FA
:1002E000892F932F3170E327EF709295392F9F70EC
:1002F000307E8327E40F359193273170932783272E
:100300006A9532F7809590958D939D9308950F93FC
:100310001F932F93DF93CF930FB70F93CA99FECFFD
:10032000CA990BC0CA9909C0CA9907C0CA9905C021
:10033000CA9903C000E80ABFB9C0C091A100DD2777
:10034000CE55DF4F0BE014E424E0CA9BE9CF3F9386
:100350004F936F9369B330E803C069B3432B49935C
:10036000442764742627215029B32474A9F13795B2
:100370003C3FA0F56227615069B3647437953C3FF8
:1003800098F526272150379529B324743C3F90F5E2
:100390006227615037953C3F69B36474A0F5262706
:1003A000215037953C3FC8F529B32474622761502A
:1003B00037953C3FB0F50A9569B37AF06474262707
:1003C000215037953C3F88F529B32474622761504A
:1003D00037953C3F10F22DC031C05FC0612729B373
:1003E00024743F774160C6CF3F77426069B364743D
:1003F0002127C7CF3F774460612729B32474622740
:1004000061503795C8CF3F7748602127316069B385
:100410006474262721503795C6CF3F774061612706
:10042000C1CF3F7740622127C4CF3F774064612727
:10043000C9CF3F774068212700C08FCF30E83ABF4F
:100440000B500195C01BD040288121FD3AC0698125
:10045000162F1F774091B8001417F9F42936F1F4DC
:1004600067FB76F400000091B900002339F1409158
:10047000A000442319F54093B900C5E9D0E038C085
:10048000009187000023D1F04091A0004423B1F4F3
:1004900040938700C8E8D0E02BC022272093680053
:1004A0006F914F913F910AB707FD38CF0F910FBF62
:1004B000CF91DF912F911F910F911895C1E6D0E058
:1004C00016C0217059F320916800222339F340911E
:1004D000A000442399F70093A0002093940000917A
:1004E000A1004BE0401B4093A100C0E6D0E001E03A
:1004F0002BB32B7B20641AB314642BBB1ABB14E4FC
:1005000030E830FF21272BBB379547954C3FC0F58E
:1005100030FF212737952BBB47954C3FA8F530FF7F
:100520002127379500002BBB47954C3F78F530FFCE
:100530002127379500002BBB47954C3F48F530FFEE
:10054000212769912BBB379547954C3F18F530FF14
:10055000212737952BBB47954C3F00F530FF2127CE
:10056000379547952BBB4C3FD8F430FF2127379563
:10057000362F47952BBB4C3FA8F40A9512F614C0B2
:10058000212744272BBBC2CF2127C5CF2127CBCF83
:100590002127D1CF212744272BBBD7CF2127DACF43
:1005A0002127DFCF2127E5CF2B7B2BBB6F914F91ED
:1005B0003F9100E80ABFDF91CF911AB3022F206468
:1005C0002BBB1B7BDFBFDF912F9100001ABB0BBB46
:1005D0001F910F914F93409193004093B8004F911A
:1005E000189585B7836085BF8BB780688BBFD09A1D
:1005F000DF9AD79A789408950F931F93CF93DF9340
:100600006091A000662309F483C08091A10099271E
:10061000CC27DD27C81BD90BC255DF4F635091E0B3
:1006200090936A0010E0809194008D3209F062C0CE
:100630000E818F8181110FEF8881807609F049C08A
:100640008981882319F412E088834CC0853029F40D
:100650008A8180939300D89A48C0863089F582E0D9
:1006600080936A008B81813021F4C2EAD0E012E1EC
:1006700039C0823021F4C0E8D0E012E233C08232C7
:1006800021F4C4EBD0E011E42DC0833071F58A81F0
:10069000882321F4CCE7D0E014E024C0813021F499
:1006A000C0E6D0E01CE11EC0823021F4C0E4D0E0FE
:1006B00010E218C08330C9F4C6E3D0E01AE012C0DB
:1006C000883011F4988303C08A3079F41883192F85
:1006D00009C08C2F9D2FB6D0182F8F3F19F483E0BF
:1006E00080936A00011708F4102FD0936D00C09317
:1006F0006C0005C0662319F08C2F9D2FFFD010933E
:100700006B0083EC80938800109287001092A00009
:1007100030918700332309F047C020916A002223DB
:1007200009F442C08091880098E889278093880066
:10073000C0916B00C93008F0C8E0A9E8B0E0CC2354
:1007400039F1233031F46C2F8A2F9B2FC2D0C82F60
:100750001AC0E0916C00F0916D00213039F4932FB4
:100760009C1768F481918D939F5FFACF932F9C170C
:1007700030F4C895802D31968D939F5FF8CFF0931C
:100780006D00E0936C0080916B008C1B80936B007C
:100790006C2F89E890E096DDCD5FC0938700C35051
:1007A000C83010F410926A008AE0CE990BC08150D4
:1007B00011F0CE9BFCCF882329F480939300809383
:1007C000B800D898DF91CF911F910F910895CF93E2
:1007D000DF93282F392FF8941092B90078948091E4
:1007E0006900882339F483EC8093950081E080933D
:1007F000690006C08091950098E88927809395004C
:10080000C0E0D0E07727C617D7076CF4A6E9B0E0C0
:10081000F32FE22F81918D932196C617D7071CF4F1
:10082000CB30D105BCF36C2F86E990E04BDDF8941A
:100830008C2F8D5F8093B90078948C2F9927DF914E
:10084000CF910895F92FE82F818199278330910561
:1008500021F18430910534F48130910579F00297CB
:10086000C9F034C08A30910521F18B3091051CF418
:100870000997C9F02BC00B9701F128C08281813004
:1008800029F580917F00808380918000818382E0C0
:1008900090E008958091660002C080916700808397
:1008A00081E090E008958281823081F480E090E0E0
:1008B000089582818093660009C090E08281882338
:1008C00011F48381811191E09093670080E090E0C2
:1008D0000895F92FE82F20E030E0462F5527241700
:1008E00035074CF4AFE7B0E08D9181932F5F3F4F18
:1008F00024173507CCF3822F99270895089588E1AE
:1009000083BF8CE183BF81E085BB12BE8FE283BBD6
:1009100080E188BF89B78F7E89BF83B78F7E83BF11
:10092000089508B604FE3BC080E188BF80917B003B
:1009300090917C00A0917D00B0917E000196A11D58
:10094000B11D80937B0090937C00A0937D00B093B9
:100950007E008091770090917800A0917900B0910D
:100960007A000196A11DB11D8093770090937800C5
:10097000A0937900B0937A008091730090917400F5
:10098000A0917500B09176000196A11DB11D8093D4
:10099000730090937400A0937500B093760008954F
:1009A00080917200882379F068E08FE790E00FDF94
:1009B00010927700109278001092790010927A00CD
:1009C00010927200D19A80916600882321F19927B4
:1009D000880F991F880F991F282F392F442737FD1B
:1009E0004095542F8091770090917800A0917900E4
:1009F000B0917A0082179307A407B50760F068E00A
:100A00008FE790E0E4DE1092770010927800109269
:100A1000790010927A000895EF92FF920F931F933E
:100A2000CF93DF9380917B0090917C00A0917D001B
:100A3000B0917E002091620030916300409164008B
:100A40005091650082179307A407B50708F493C077
:100A50002E5F3F4F4F4F5F4F09F48DC0C0916E0026
:100A6000D0916F004C2F5D2F440F551F440F551F21
:100A70004B505F4FF52FE42FC895202D3196C89528
:100A8000302DF52FE42F3296C895E02C3196C8957D
:100A9000F02C0091700010917100912F802F6CE06C
:100AA00070E092D0280F391FF32FE22FC895802DC8
:100AB0003196C895902D3196C895A02D3196C89540
:100AC000B02D8093620090936300A0936400B09374
:100AD00065008F5F9F4FAF4FBF4F31F588EE93E0BA
:100AE000A0E0B0E08093620090936300A093640064
:100AF000B093650010927B0010927C0010927D00F4
:100B000010927E0010927100109270008C2F9D2F19
:100B1000019690936F0080936E00029760F110929F
:100B20006F0010926E0027C0F32FE22F3496AFE7CC
:100B3000B0E0C895802D8D93319640E0A638B4077B
:100B4000C1F3B8F310927B0010927C0010927D00EC
:100B500010927E0081E080937200912F802F019689
:100B600090937100809370008E159F0520F0109275
:100B7000710010927000DF91CF911F910F91FF9043
:100B8000EF900895CFE5D2E0DEBFCDBFD99AD09ADD
:100B900028DDB5DE31DDC5DE03DF3EDF8091730089
:100BA00090917400A0917500B09176000597A10511
:100BB000B10580F3D19810927300109274001092D6
:100BC000750010927600E6CF5527002480FF02C002
:100BD000060E571F660F771F6115710521F0969558
:0E0BE0008795009799F7952F802D0895FFCFE8
:080BEE00D25AE02E00007D0147
:00000001FF
