:10000000C8C0E3C0E2C0E1C0E0C0DFC0DEC0DDC008
:10001000DCC0DBC0DAC0D9C0D8C0FDC0D6C0D5C0F6
:10002000D4C0D3C0D2C000CDD914F13C28E5A16C16
:1000300078B5509D89440A0330003000300031000B
:1000400020034B006500790062006F0061007200C0
:100050006400530070006F006F006600650072005E
:100060001C034500640077006100720064002000FA
:1000700048006F006C0065007400730004030904FD
:100080000902220001010080190904000001030196
:100090000100092111012101224100070581030806
:1000A000000A120110010000000866660100050147
:1000B0000102030105010906A101050719E029E76D
:1000C00015002501750195088102950175088101CA
:1000D000950575010508190129059102950175031A
:1000E000910195067508150026FF00050719002ADD
:1000F000FF008100C01900000002000B000000009A
:1001000000190000000000080000000000190000B5
:100110000000000F000000000019000000000000B7
:1001200000000000001900000000000F00000000A7
:10013000001900000000001200000000001900007B
:100140000000002C00000000001900000002001A4E
:100150000000000000190000000000120000000074
:100160000019000000000015000000000019000048
:100170000000000F00000000001900000000000750
:1001800000000000008813000000000000000000D4
:10019000000011241FBECFE5D2E0DEBFCDBF10E0CE
:1001A000A0E6B0E0ECE5FAE003C0C89531960D9208
:1001B000A836B107D1F710E0A8E6B0E001C01D9263
:1001C000A83BB107E1F715D448C41ACFDC019FEF73
:1001D0008FEF46E2F0E018C02D918227E82FEF70F4
:1001E000E40F3591E82FE295892F932F3170E327A3
:1001F000EF709295392F9F70307E8327E40F3591F1
:1002000093273170932783276A9532F780959095CD
:100210008D939D9308950F931F932F93DF93CF9307
:100220000FB70F93CA99FECFCA990BC0CA9909C0DC
:10023000CA9907C0CA9905C0CA9903C000E80ABF95
:10024000B9C0C0919F00DD27C056DF4F0BE014E41A
:1002500024E0CA9BE9CF3F934F936F9369B330E893
:1002600003C069B3432B4993442764742627215064
:1002700029B32474A9F137953C3FA0F5622761505A
:1002800069B3647437953C3F98F52627215037951C
:1002900029B324743C3F90F56227615037953C3F69
:1002A00069B36474A0F52627215037953C3FC8F503
:1002B00029B324746227615037953C3FB0F50A9505
:1002C00069B37AF064742627215037953C3F88F54E
:1002D00029B324746227615037953C3F10F22DC03A
:1002E00031C05FC0612729B324743F774160C6CF16
:1002F0003F77426069B364742127C7CF3F7744607A
:10030000612729B32474622761503795C8CF3F779E
:1003100048602127316069B36474262721503795DE
:10032000C6CF3F7740616127C1CF3F774062212729
:10033000C4CF3F7740646127C9CF3F77406821270A
:1003400000C08FCF30E83ABF0B500195C01BD040A2
:10035000288121FD3AC06981162F1F774091B60090
:100360001417F9F42936F1F467FB76F400000091D4
:10037000B700002339F140919E00442319F54093C2
:10038000B700C3E9D0E038C0009185000023D1F068
:1003900040919E004423B1F440938500C6E8D0E02C
:1003A0002BC02227209368006F914F913F910AB78D
:1003B00007FD38CF0F910FBFCF91DF912F911F9184
:1003C0000F911895C1E6D0E016C0217059F3209125
:1003D0006800222339F340919E00442399F700934B
:1003E0009E002093920000919F004BE0401B4093A1
:1003F0009F00C0E6D0E001E02BB32B7B20641AB352
:1004000014642BBB1ABB14E430E830FF21272BBB4C
:10041000379547954C3FC0F530FF212737952BBBCB
:1004200047954C3FA8F530FF2127379500002BBB9F
:1004300047954C3F78F530FF2127379500002BBBBF
:1004400047954C3F48F530FF212769912BBB3795E5
:1004500047954C3F18F530FF212737952BBB479523
:100460004C3F00F530FF2127379547952BBB4C3F7C
:10047000D8F430FF21273795362F47952BBB4C3FBB
:10048000A8F40A9512F614C0212744272BBBC2CF2B
:100490002127C5CF2127CBCF2127D1CF2127442703
:1004A0002BBBD7CF2127DACF2127DFCF2127E5CFDD
:1004B0002B7B2BBB6F914F913F9100E80ABFDF91DF
:1004C000CF911AB3022F20642BBB1B7BDFBFDF91C0
:1004D0002F9100001ABB0BBB1F910F914F934091BE
:1004E00091004093B6004F91189585B7836085BF02
:1004F0008BB780688BBFD09ADF9AD79A789408958B
:100500000F931F93CF93DF9360919E00662309F4AE
:1005100083C080919F009927CC27DD27C81BD90B6A
:10052000C455DF4F635091E090936A0010E08091D2
:1005300092008D3209F062C00E818F8181110FEF20
:100540008881807609F049C08981882319F412E0F6
:1005500088834CC0853029F48A8180939100D89A91
:1005600048C0863089F582E080936A008B818130B3
:1005700021F4C2EAD0E012E139C0823021F4C0E8AF
:10058000D0E012E233C0823221F4C4EBD0E011E4B7
:100590002DC0833071F58A81882321F4CCE7D0E027
:1005A00014E024C0813021F4C0E6D0E01CE11EC07C
:1005B000823021F4C0E4D0E010E218C08330C9F4E6
:1005C000C6E3D0E01AE012C0883011F4988303C06B
:1005D0008A3079F41883192F09C08C2F9D2FB6D03B
:1005E000182F8F3F19F483E080936A00011708F4F5
:1005F000102FD0936D00C0936C0005C0662319F0D6
:100600008C2F9D2FFFD010936B0083EC809386007E
:100610001092850010929E0030918500332309F0DE
:1006200047C020916A00222309F442C080918600CD
:1006300098E8892780938600C0916B00C93008F044
:10064000C8E0A7E8B0E0CC2339F1233031F46C2FB7
:100650008A2F9B2FC2D0C82F1AC0E0916C00F09156
:100660006D00213039F4932F9C1768F481918D939C
:100670009F5FFACF932F9C1730F4C895802D319649
:100680008D939F5FF8CFF0936D00E0936C008091A5
:100690006B008C1B80936B006C2F87E890E096DDDD
:1006A000CD5FC0938500C350C83010F410926A002B
:1006B0008AE0CE990BC0815011F0CE9BFCCF8823ED
:1006C00029F4809391008093B600D898DF91CF9160
:1006D0001F910F910895CF93DF93282F392FF8940E
:1006E0001092B700789480916900882339F483ECE4
:1006F0008093930081E08093690006C0809193000D
:1007000098E8892780939300C0E0D0E07727C61748
:10071000D7076CF4A4E9B0E0F32FE22F81918D9319
:100720002196C617D7071CF4CB30D105BCF36C2F2C
:1007300084E990E04BDDF8948C2F8D5F8093B700B7
:1007400078948C2F9927DF91CF910895F92FE82F76
:10075000818199278330910521F18430910534F40A
:100760008130910579F00297C9F034C08A30910543
:1007700021F18B3091051CF40997C9F02BC00B9720
:1007800001F128C08281813029F580917D0080832C
:1007900080917E00818382E090E0089580916600E0
:1007A00002C080916700808381E090E0089582819B
:1007B000823081F480E090E0089582818093660029
:1007C00009C090E08281882311F48381811191E036
:1007D0009093670080E090E00895F92FE82F20E0E3
:1007E00030E0462F5527241735074CF4ADE7B0E02D
:1007F0008D9181932F5F3F4F24173507CCF3822FC4
:1008000099270895089588E183BF8CE183BF81E033
:1008100085BB12BE8FE283BB80E188BF89B78F7E24
:1008200089BF83B78F7E83BF089508B604FE3BC09F
:1008300080E188BF8091790090917A00A0917B003F
:10084000B0917C000196A11DB11D80937900909319
:100850007A00A0937B00B0937C008091750090910A
:100860007600A0917700B09178000196A11DB11D8E
:100870008093750090937600A0937700B0937800F2
:100880008091710090917200A0917300B0917400FA
:100890000196A11DB11D8093710090937200A093E9
:1008A0007300B0937400089580917000882379F0EC
:1008B00068E08DE790E00FDF1092750010927600EF
:1008C000109277001092780010927000D19A809167
:1008D0006600882321F19927880F991F880F991F97
:1008E000282F392F442737FD4095542F80917500CC
:1008F00090917600A0917700B091780082179307CD
:10090000A407B50760F068E08DE790E0E4DE1092A0
:10091000750010927600109277001092780008957A
:100920008091790090917A00A0917B00B0917C0039
:100930002091620030916300409164005091650005
:1009400082179307A407B50708F452C02F5F3F4FE3
:100950004F4F5F4F09F44CC020916E0030916F00F3
:10096000932F822F6CE070E066D0F92FE82FE750CC
:10097000FF4FADE7B0E0C895802D8D93319680E0B4
:10098000A438B807C1F3B8F3932F822F6CE070E05E
:1009900052D0F92FE82FEB50FF4FC895802D31969C
:1009A000C895902D3196C895A02D3196C895B02D3B
:1009B0008093620090936300A0936400B0936500FD
:1009C0001092790010927A0010927B0010927C00B5
:1009D00081E080937000932F822F019690936F0097
:1009E00080936E000D9720F010926F0010926E00B1
:1009F0000895CFE5D2E0DEBFCDBFD99AD09A75DD9C
:100A000002DF7EDD12DF50DF8BDF8091710090917D
:100A10007200A0917300B09174000597A105B10513
:100A200080F3D198109271001092720010927300AE
:100A300010927400E6CF5527002480FF02C0060EF6
:100A4000571F660F771F6115710521F096958795E1
:0C0A5000009799F7952F802D0895FFCF97
:080A5C00D25AE02E00007D01DA
:00000001FF
