:1000000041C080C059C0B8C210C356C055C054C00A
:1000100053C052C051C050C04FC04EC04DC04CC064
:100020004BC04AC049C000CDD914F13C28E5A16CB1
:1000300078B5509D89441E0355005300420074005A
:1000400069006E0079002000490052002F004C002A
:10005000430044000403090409021900010100805F
:10006000280904000001FF000000070581000800C6
:100070000012010101FF000008EB0302000501006E
:100080000200010011241FBECFEDCDBF10E0A0E69D
:10009000B0E0E6EFF7E003C0C89531960D92A436C4
:1000A000B107D1F710E0A4E6B0E001C01D92AA3B71
:1000B000B107E1F77CD39EC3A3CFDC019FEF8FEFA5
:1000C00046E2F0E018C02D918227E82FEF70E40F90
:1000D0003591E82FE295892F932F3170E327EF7048
:1000E0009295392F9F70307E8327E40F35919327A7
:1000F0003170932783276A9532F7809590958D9379
:100100009D9308950F931F932F93DF93CF930FB772
:100110000F938299FECF82990BC0829909C0829970
:1001200007C0829905C0829903C000E40ABFACC031
:10013000C091A200DD27CD55DF4F0BE014E124E094
:10014000829BE9CF3F934F936F9360B330E803C036
:1001500060B3432B4993442764712627215020B371
:100160002471A9F137953C3FA0F56227615060B337
:10017000647137953C3F98F526272150379520B379
:1001800024713C3F90F56227615037953C3F60B346
:100190006471A0F52627215037953C3FC8F520B360
:1001A00024716227615037953C3FB0F50A9560B3E2
:1001B0007AF064712627215037953C3F88F520B3AB
:1001C00024716227615037953C3F10F22DC031C039
:1001D00052C0612720B324713F774160C6CF3F777B
:1001E000426060B364712127C7CF3F7744606127C5
:1001F00020B32471622761503795C8CF3F7748609C
:100200002127316060B36471262721503795C6CF0E
:100210003F7740616127C1CF3F7740622127C4CF3C
:100220003F7740646127C9CF3F774068212700C0EE
:100230008FCF30E43ABF0B500195C01BD0402881CE
:1002400021FD2DC019811F774091B900141799F431
:10025000293691F4009193000023F1F04091A10020
:100260004423D1F44093930040919F004093B90000
:10027000C4E9D0E02BC02227209364006F914F91F6
:100280003F910AB706FD45CF0F910FBFCF91DF9188
:100290002F911F910F911895C1E6D0E016C02170E3
:1002A00059F320916400222339F34091A1004423A3
:1002B00099F70093A1002093A0000091A2004BE0C9
:1002C000401B4093A200C0E6D0E001E022B32B7EA9
:1002D000206111B3146122BB11BB14E130E830FF7F
:1002E000212722BB379547954C3FC0F530FF21278A
:1002F000379522BB47954C3FA8F530FF212737950E
:10030000000022BB47954C3F78F530FF21273795F9
:10031000000022BB47954C3F48F530FF21276991EB
:1003200022BB379547954C3F18F530FF212737956D
:1003300022BB47954C3F00F530FF21273795479565
:1003400022BB4C3FD8F430FF21273795362F4795F5
:1003500022BB4C3FA8F40A9512F614C0212744276B
:1003600022BBC2CF2127C5CF2127CBCF2127D1CF79
:100370002127442722BBD7CF2127DACF2127DFCF60
:100380002127E5CF2B7E22BB6F914F913F9100E457
:100390000ABFDF91CF9111B3022F206122BB1B7ED8
:1003A000DFBFDF912F91000011BB02BB1F910F91A6
:1003B000189585B7836085BF8BB780648BBF8D9A96
:1003C000939A8B9A789408950F931F93CF93DF930A
:1003D0006091A100662309F470C08091A200992762
:1003E000CC27DD27C81BD90BC155DF4F635091E0E7
:1003F0009093650010E08091A0008D3209F04FC00D
:100400000E818F8181110FEF88818076B9F5898106
:10041000882319F412E088833AC0853029F48A8150
:1004200080939F00959A36C08630F9F482E08093DD
:1004300065008B81813021F4C1E7D0E012E127C053
:10044000823021F4C8E5D0E019E121C0833011F5F4
:100450008A81882321F4C4E5D0E014E018C08230FA
:10046000C9F4C6E3D0E01EE112C0883011F49883CD
:1004700003C08A3079F41883192F09C08C2F9D2F5F
:1004800031D1182F8F3F19F483E080936500011755
:1004900008F4102FD0936800C093670005C066234E
:1004A00019F08C2F9D2F6FD11093660083EC8093F1
:1004B0009400109293001092A10030919300332386
:1004C00009F047C020916500222309F442C08091C1
:1004D000940098E8892780939400C0916600C93001
:1004E00008F0C8E0A5E9B0E0CC2339F1233031F4BD
:1004F0006C2F8A2F9B2F20D1C82F1AC0E091670044
:10050000F0916800213039F4932F9C1768F48191A1
:100510008D939F5FFACF932F9C1730F4C895802D51
:1005200031968D939F5FF8CFF0936800E09367005A
:10053000809166008C1B809366006C2F85E990E0AB
:10054000BCDDCD5FC0939300C350C83010F410924F
:1005500065008AE084990BC0815011F0849BFCCF28
:10056000882329F480939F008093B9009598DF91A8
:10057000CF911F910F9108951F920F920FB60F9276
:1005800011242F933F938F939F93EF93FF9319BE63
:1005900078948EB590E489278EBD84B595B5E091A9
:1005A0006900F0916A008F939F93209169003091C8
:1005B0006A00821B930B805C9F4F880F892F881FD6
:1005C000990B9195282F9F918F9190936A0080931A
:1005D00069008A57924C9BBD8ABDF89490916B003C
:1005E0009F3F99F0953208F09051809162008F3FC3
:1005F00049F410926C00992329F0E92FFF27E45960
:10060000FF4F22839F5F90936B007894959A98E4B4
:10061000F89499BFFF91EF919F918F913F912F9106
:100620000F900FBE0F901F9018951F920F920FB64C
:100630000F9211248F939F9319BE78949598F894F4
:1006400090916B00943070F09F3F61F08091620058
:100650008F3F41F480916D008F5F80936D009150CA
:1006600090936C0010926B0078948EB58F7B8EBD4A
:10067000F89488E489BF9F918F910F900FBE0F90DF
:100680001F90189590EF00C09A95E9F78A95D1F7D9
:10069000089598B3907F982B98BBC69A8FE787BB35
:1006A000C69880E787BB0895CF93C82F30E298B3F0
:1006B00038BBC69A00C086B398BB8F7098B338BB5E
:1006C000C69A00C026B398BB992788709070892B72
:1006D00071F78C2F82958F70DCDF8C2F8F70D9DFB4
:1006E000CF910895F92FE82F90E08181882311F4AC
:1006F00098E01FC0813031F490936C008FEF8093AD
:10070000620017C0823071F4F89480916C008823E5
:1007100029F08481809362009FEF02C0808391E082
:10072000789407C0843111F4C49803C0853109F46A
:10073000C49A892F9927089520916C002D5F30E08D
:100740003617F0F44FEFB92FA82F8091620082176F
:1007500058F0F89480916B00882311F040936B005F
:100760004093620078940CC0E82FFF27E459FF4FB4
:100770008F5F8093620080818D933F5F361728F3EF
:10078000832F992708950F931F93CF93082F192F25
:10079000C62F662341F0F12FE02F81910E2F1F2FDE
:1007A00083DFC150C1F7CF911F910F910895CFED15
:1007B000D0E0DEBFCDBF8FED8DBF80E787BB18BA1D
:1007C00083E067DF89E25EDF83E063DF81E05ADF99
:1007D00082E36ADF88E268DF81E066DF86E064DF6B
:1007E0008CE062DF8D9A82E88EBD88E489BFE1DD0E
:0607F000EBDDFECFFFCFA0
:0407F600D25AFF00D4
:00000001FF
