:100000004DC068C067C066C065C064C063C062C0E0
:1000100061C060C05FC05EC05DC082C05BC05AC0CE
:1000200059C058C057C000CDD914F13C28E5A16C87
:1000300078B5509D89440A0330003000300031000B
:100040001803540069006E007900540065007300C5
:1000500074003800360031001C034500640077004E
:10006000610072006400200048006F006C006500B1
:1000700074007300040309040902120001010080E6
:10008000190904000000FF00000012010101FF0037
:1000900000086666010005010102030111241FBE6C
:1000A000CFE5D2E0DEBFCDBF10E0A0E6B0E0E0E4F7
:1000B000F7E003C0C89531960D92A236B107D1F78B
:1000C00010E0A2E6B0E001C01D92A03CB107E1F74C
:1000D0002FD335C395CFDC019FEF8FEF46E2F0E0E1
:1000E00018C02D918227E82FEF70E40F3591E82F8B
:1000F000E295892F932F3170E327EF709295392F76
:100100009F70307E8327E40F3591932731709327BA
:1001100083276A9532F7809590958D939D930895E6
:100120000F931F932F93DF93CF930FB70F93CA991A
:10013000FECFCA990BC0CA9909C0CA9907C0CA990B
:1001400005C0CA9903C000E80ABFB9C0C0918700C2
:10015000DD27C857DF4F0BE014E424E0CA9BE9CF4A
:100160003F934F936F9369B330E803C069B3432B58
:100170004993442764742627215029B32474A9F194
:1001800037953C3FA0F56227615069B36474379599
:100190003C3F98F526272150379529B324743C3FDE
:1001A00090F56227615037953C3F69B36474A0F5C0
:1001B0002627215037953C3FC8F529B32474622780
:1001C000615037953C3FB0F50A9569B37AF0647495
:1001D0002627215037953C3F88F529B324746227A0
:1001E000615037953C3F10F22DC031C05FC0612790
:1001F00029B324743F774160C6CF3F77426069B32B
:1002000064742127C7CF3F774460612729B32474E2
:10021000622761503795C8CF3F774860212731600A
:1002200069B36474262721503795C6CF3F77406164
:100230006127C1CF3F7740622127C4CF3F77406419
:100240006127C9CF3F774068212700C08FCF30E8B2
:100250003ABF0B500195C01BD040288121FD3AC008
:100260006981162F1F7740919E001417F9F42936E3
:10027000F1F467FB76F4D19800919F00002339F1E7
:1002800040918600442319F540939F00CBE7D0E0CE
:1002900038C000916D000023D1F0409186004423C6
:1002A000B1F440936D00CEE6D0E02BC0222720931E
:1002B00062006F914F913F910AB707FD38CF0F91C0
:1002C0000FBFCF91DF912F911F910F911895C1E62C
:1002D000D0E016C0217059F320916200222339F337
:1002E00040918600442399F70093860020937A007A
:1002F000009187004BE0401B40938700C0E6D0E0B0
:1003000001E02BB32B7B20641AB314642BBB1ABB04
:1003100014E430E830FF21272BBB379547954C3F3D
:10032000C0F530FF212737952BBB47954C3FA8F5EB
:1003300030FF2127379500002BBB47954C3F78F5C0
:1003400030FF2127379500002BBB47954C3F48F5E0
:1003500030FF212769912BBB379547954C3F18F506
:1003600030FF212737952BBB47954C3F00F530FFD9
:100370002127379547952BBB4C3FD8F430FF2127D9
:100380003795362F47952BBB4C3FA8F40A9512F6AC
:1003900014C0212744272BBBC2CF2127C5CF21273B
:1003A000CBCF2127D1CF212744272BBBD7CF212744
:1003B000DACF2127DFCF2127E5CF2B7B2BBB6F9116
:1003C0004F913F9100E80ABFDF91CF911AB3022FFE
:1003D00020642BBB1B7BDFBFDF912F9100001ABB7A
:1003E0000BBB1F910F914F934091790040939E005A
:1003F0004F91189585B7836085BF8BB780688BBF99
:10040000D09ADF9AD79A789408950F931F93CF9339
:10041000DF9360918600662309F47CC08091870099
:100420009927CC27DD27C81BD90BCC56DF4F63504B
:1004300091E09093630010E080917A008D3209F092
:100440005BC00E818F8181110FEF8881807609F06A
:1004500042C08981882319F412E0888345C0853021
:1004600029F48A8180937900D89A41C0863051F569
:1004700082E0809363008B81813019F4CAE8D0E078
:1004800004C0823021F4C8E7D0E012E12DC08330EF
:1004900071F58A81882321F4C4E7D0E014E024C0F8
:1004A000813021F4C8E5D0E01CE11EC0823021F487
:1004B000C0E4D0E018E118C08330C9F4C6E3D0E04E
:1004C0001AE012C0883011F4988303C08A3079F49E
:1004D0001883192F09C08C2F9D2F7BD0182F8F3F89
:1004E00019F483E080936300011708F4102FD09370
:1004F0006600C093650005C0662319F08C2F9D2F00
:10050000DFD01093640083EC80936E0010926D0036
:100510001092860030916D00332309F047C020917E
:100520006300222309F442C080916E0098E8892775
:1005300080936E00C0916400C93008F0C8E0AFE657
:10054000B0E0CC2339F1233031F46C2F8A2F9B2F6C
:1005500078D0C82F1AC0E0916500F0916600213074
:1005600039F4932F9C1768F481918D939F5FFACF94
:10057000932F9C1730F4C895802D31968D939F5FF3
:10058000F8CFF0936600E0936500809164008C1BC7
:10059000809364006C2F8FE690E09DDDCD5FC0936B
:1005A0006D00C350C83010F4109263008AE0CE99F9
:1005B0000BC0815011F0CE9BFCCF882329F480938F
:1005C000790080939E00D898DF91CF911F910F9171
:1005D0000895F92FE82F818199278130910561F0E5
:1005E000823091051CF4892B21F028C0029791F0EC
:1005F00025C088E090E00895248185819927982F6F
:100600008827820F911D90936C0080936B008FEF71
:1006100090E00895248185819927982F8827820F5B
:10062000911D90936A0080936900009721F4909344
:1006300068008093670080E090E0089580E090E09B
:100640000895CF93DF93282F392F40E050E0C62F35
:10065000DD274C175D077CF5E0916B00F0916C0095
:10066000E032F10540F58091670090916800E8174D
:10067000F9070CF5B32FA22F60EA70E0E60FF71F21
:1006800080818D934F5F5F4F6F5F7F4F4C175D078A
:1006900094F4E0916B00F0916C00242F352F2E0F15
:1006A0003F1F2032310538F4809167009091680037
:1006B000281739071CF3842F9927DF91CF910895CC
:1006C000CF93DF93F92FE82F862F60E070E0C82FDB
:1006D000DD276C177D074CF54091690050916A0049
:1006E0004032510510F520916700309168002032AA
:1006F0003105D8F4B52FA42FA056BF4F81918D930B
:10070000932F822F019690936800809367006F5F0C
:100710007F4F4F5F5F4F6C177D073CF440325105B0
:1007200020F4282F392F809748F3DF91CF91089537
:10073000CFE5D2E0DEBFCDBF5DDE67DEFECFFFCF0F
:02074000D25A8B
:00000001FF
