:1000000039C078C051C050C04FC04EC04DC04CC068
:100010004BC04AC049C048C047C046C045C044C0A4
:1000200043C042C041C000CDD914F13C28E5A16CC9
:1000300078B5509D89441603550053004200740062
:1000400069006E0079004900530050000403090460
:100050000902120001010080320904000000FF00C3
:10006000000012010101FF00000881179F0C05012B
:100070000002000111241FBECFEDCDBF10E0A0E6AD
:10008000B0E0E0EFF7E003C0C89531960D92A236DC
:10009000B107D1F710E0A2E6B0E001C01D92AE3981
:1000A000B107E1F79BD3A3C3ABCFDC019FEF8FEF89
:1000B00046E2F0E018C02D918227E82FEF70E40FA0
:1000C0003591E82FE295892F932F3170E327EF7058
:1000D0009295392F9F70307E8327E40F35919327B7
:1000E0003170932783276A9532F7809590958D9389
:1000F0009D9308950F931F932F93DF93CF930FB783
:100100000F938299FECF82990BC0829909C0829980
:1001100007C0829905C0829903C000E40ABFACC041
:10012000C0918600DD27C957DF4F0BE01CE024E0BB
:10013000829BE9CF3F934F936F9360B330E803C046
:1001400060B3432B499344276C702627215020B37A
:100150002C70A9F137953C3FA0F56227615060B340
:100160006C7037953C3F98F526272150379520B382
:100170002C703C3F90F56227615037953C3F60B34F
:100180006C70A0F52627215037953C3FC8F520B369
:100190002C706227615037953C3FB0F50A9560B3EB
:1001A0007AF06C702627215037953C3F88F520B3B4
:1001B0002C706227615037953C3F10F22DC031C042
:1001C00052C0612720B32C703F774160C6CF3F7784
:1001D000426060B36C702127C7CF3F7744606127CE
:1001E00020B32C70622761503795C8CF3F774860A5
:1001F0002127316060B36C70262721503795C6CF18
:100200003F7740616127C1CF3F7740622127C4CF4C
:100210003F7740646127C9CF3F774068212700C0FE
:100220008FCF30E43ABF0B500195C01BD0402881DE
:1002300021FD2DC019811F7740919D00141799F45D
:10024000293691F4009177000023F1F04091850068
:100250004423D1F4409377004091830040939D0064
:10026000C8E7D0E02BC02227209362006F914F9106
:100270003F910AB706FD45CF0F910FBFCF91DF9198
:100280002F911F910F911895C1E6D0E016C02170F3
:1002900059F320916200222339F3409185004423D1
:1002A00099F70093850020938400009186004BE02D
:1002B000401B40938600C0E6D0E001E022B3237FDC
:1002C000286011B31C6022BB11BB1CE030E830FF7A
:1002D000212722BB379547954C3FC0F530FF21279A
:1002E000379522BB47954C3FA8F530FF212737951E
:1002F000000022BB47954C3F78F530FF212737950A
:10030000000022BB47954C3F48F530FF21276991FB
:1003100022BB379547954C3F18F530FF212737957D
:1003200022BB47954C3F00F530FF21273795479575
:1003300022BB4C3FD8F430FF21273795362F479505
:1003400022BB4C3FA8F40A9512F614C0212744277B
:1003500022BBC2CF2127C5CF2127CBCF2127D1CF89
:100360002127442722BBD7CF2127DACF2127DFCF70
:100370002127E5CF237F22BB6F914F913F9100E46E
:100380000ABFDF91CF9111B3022F286022BB137FE8
:10039000DFBFDF912F91000011BB02BB1F910F91B6
:1003A000189585B7836085BF8BB780648BBF8D9AA6
:1003B000969A8E9A789408950F931F93CF93DF9314
:1003C00060918500662309F46FC0809186009927AB
:1003D000CC27DD27C81BD90BCD56DF4F635091E0EA
:1003E0009093630010E0809184008D3209F04EC03C
:1003F0000E818F8181110FEF88818076B1F589811F
:10040000882319F412E0888339C0853029F48A8161
:1004100080938300959A35C08630F1F482E0809312
:1004200063008B81813019F4C2E6D0E004C08230D1
:1004300021F4C0E5D0E012E121C0833011F58A81BA
:10044000882321F4CCE4D0E014E018C08230C9F451
:10045000C6E3D0E016E112C0883011F4988303C0DF
:100460008A3079F41883192F09C08C2F9D2FC9D099
:10047000182F8F3F19F483E080936300011708F46D
:10048000102FD0936600C093650005C0662319F055
:100490008C2F9D2F57D11093640083EC80937800AC
:1004A000109277001092850030917700332309F085
:1004B00047C020916300222309F442C08091780054
:1004C00098E8892780937800C0916400C93008F0CB
:1004D000C8E0A9E7B0E0CC2339F1233031F46C2F28
:1004E0008A2F9B2F17D1C82F1AC0E0916500F09179
:1004F0006600213039F4932F9C1768F481918D9315
:100500009F5FFACF932F9C1730F4C895802D3196BA
:100510008D939F5FF8CFF0936600E0936500809124
:1005200064008C1B809364006C2F89E790E0BDDD34
:10053000CD5FC0937700C350C83010F410926300B1
:100540008AE083990BC0815011F0839BFCCF8823F4
:1005500029F48093830080939D009598DF91CF913B
:100560001F910F910895B92FA82FF72FE62F44233D
:10057000F1F041505D9120E030E890916700852FC7
:10058000832309F0C59A092E00C000000A94E1F700
:10059000C79A092E00C000000A94E1F7220FB6990D
:1005A0002F5FC598C798369551F72193E0CF0895EE
:1005B00080916A0090916B00282F392F01969093BB
:1005C0006B0080936A0080916E0087FF02C0220F4B
:1005D000331F80936F0020FF03C0886080936F00FB
:1005E000932F822F892F99278695809370003695B7
:1005F00027952093710044E063E770E08FE690E078
:10060000B2CFF92FE82F3181332319F488E090E03D
:100610000895313019F486B380834BC04281323063
:1006200011F448BB0FC0242F277081E090E001C077
:10063000880F2A95EAF7282F333039F4209588B3AC
:10064000822388BB80E090E00895343019F488B3A9
:10065000822BF7CF3D3011F447BB13C0353059F42E
:100660004093670021E08481811121E1949881EB1E
:1006700087BB28BBE7CF363021F417BA18BA949A53
:10068000E1CF88B38823F1F2373051F444E06E2F84
:100690007F2F8E2F9F2F029666DF84E090E00895D3
:1006A0003E3051F441E06E2F7F2F8E2F9F2F029608
:1006B0005ADF81E090E00895383039F482818093E8
:1006C0006800838180936900BDCF84819581909378
:1006D0006B0080936A00393011F480E203C03B3034
:1006E00031F480EA80936E008FEF90E0089582816C
:1006F000938190936D0080936C003A3011F480E404
:1007000003C03C3021F480EC80936E009BCF80E0EE
:1007100090E008950F931F93CF93DF93162F00E07F
:10072000061748F4D92FC82F43DF809176008993AC
:100730000F5F0117C8F3812F9927DF91CF911F9188
:100740000F910895EF92FF920F931F93CF93DF9332
:10075000E62EFF24F616D8F5082F192FF12FE02FDB
:1007600081910E2F1F2F8093720022DF80916F00E6
:1007700090E6892780936F00C0E0D0E080916C0004
:1007800090916D00C817D907F8F444E063E770E072
:100790008FE690E0E8DE90917600809172009817E5
:1007A00041F480916800981721F0809169009817B2
:1007B00059F480916700992765E0880F991F6A9521
:1007C000E1F7C80FD91FDACFF394FE1438F2DF91A6
:1007D000CF911F910F91FF90EF900895CFEDD0E052
:1007E000DEBFCDBF949A8C9ADCDDE6DDFECFFFCF75
:0207F000D25ADB
:00000001FF
