:100000004AC089C062C061C060C05FC05EC05DC0E0
:100010005CC05BC05AC059C058C057C056C055C01C
:1000200054C053C052C000CDD914F13C28E5A16C96
:1000300078B5509D89440A0330003000300031000B
:100040001203540069006E007900540065007300CB
:1000500074001C03450064007700610072006400B6
:10006000200048006F006C006500740073000403FA
:1000700009040902120001010080190904000000AE
:10008000FF00000012011001FF0000086666010079
:1000900005010102030111241FBECFEDCDBF10E009
:1000A000A0E6B0E0E4E3F7E003C0C89531960D9216
:1000B000A236B107D1F710E0A2E6B0E001C01D9270
:1000C000A03CB107E1F72ED334C39ACFDC019FEFF8
:1000D0008FEF46E2F0E018C02D918227E82FEF70F5
:1000E000E40F3591E82FE295892F932F3170E327A4
:1000F000EF709295392F9F70307E8327E40F3591F2
:1001000093273170932783276A9532F780959095CE
:100110008D939D9308950F931F932F93DF93CF9308
:100120000FB70F938299FECF82990BC0829909C0B5
:10013000829907C0829905C0829903C000E40ABF72
:10014000B9C0C0918700DD27C857DF4F0BE014E12D
:1001500024E0829BE9CF3F934F936F9360B330E8E5
:1001600003C060B3432B4993442764712627215071
:1001700020B32471A9F137953C3FA0F56227615067
:1001800060B3647137953C3F98F526272150379529
:1001900020B324713C3F90F56227615037953C3F76
:1001A00060B36471A0F52627215037953C3FC8F510
:1001B00020B324716227615037953C3FB0F50A9512
:1001C00060B37AF064712627215037953C3F88F55B
:1001D00020B324716227615037953C3F10F22DC047
:1001E00031C05FC0612720B324713F774160C6CF23
:1001F0003F77426060B364712127C7CF3F77446087
:10020000612720B32471622761503795C8CF3F77AB
:1002100048602127316060B36471262721503795EB
:10022000C6CF3F7740616127C1CF3F77406221272A
:10023000C4CF3F7740646127C9CF3F77406821270B
:1002400000C08FCF30E43ABF0B500195C01BD040A7
:10025000288121FD3AC06981162F1F7740919E00A9
:100260001417F9F42936F1F467FB76F400000091D5
:100270009F00002339F140918600442319F54093F3
:100280009F00CBE7D0E038C000916D000023D1F093
:10029000409186004423B1F440936D00CEE6D0E057
:1002A0002BC02227209362006F914F913F910AB794
:1002B00006FD38CF0F910FBFCF91DF912F911F9186
:1002C0000F911895C1E6D0E016C0217059F3209126
:1002D0006200222339F340918600442399F700936A
:1002E000860020937A00009187004BE0401B4093EA
:1002F0008700C0E6D0E001E022B32B7E206111B37D
:10030000146122BB11BB14E130E830FF212722BB6E
:10031000379547954C3FC0F530FF2127379522BBD5
:1003200047954C3FA8F530FF21273795000022BBA9
:1003300047954C3F78F530FF21273795000022BBC9
:1003400047954C3F48F530FF2127699122BB3795EF
:1003500047954C3F18F530FF2127379522BB47952D
:100360004C3F00F530FF21273795479522BB4C3F86
:10037000D8F430FF21273795362F479522BB4C3FC5
:10038000A8F40A9512F614C02127442722BBC2CF35
:100390002127C5CF2127CBCF2127D1CF2127442704
:1003A00022BBD7CF2127DACF2127DFCF2127E5CFE7
:1003B0002B7E22BB6F914F913F9100E40ABFDF91EA
:1003C000CF9111B3022F206122BB1B7EDFBFDF91D3
:1003D0002F91000011BB02BB1F910F914F934091D1
:1003E000790040939E004F91189585B7836085BF33
:1003F0008BB780648BBF8D9A939A8B9A789408956B
:100400000F931F93CF93DF9360918600662309F4C7
:100410007BC0809187009927CC27DD27C81BD90B8B
:10042000CC56DF4F635091E09093630010E08091D1
:100430007A008D3209F05AC00E818F8181110FEF41
:100440008881807609F041C08981882319F412E0FF
:10045000888344C0853029F48A8180937900959AF5
:1004600040C0863049F582E0809363008B81813003
:1004700019F4C4E8D0E018C0823019F4C2E7D0E023
:1004800013C0833071F58A81882321F4CEE6D0E051
:1004900014E024C0813021F4C2E5D0E01CE11EC08C
:1004A000823021F4C0E4D0E012E118C08330C9F4F6
:1004B000C6E3D0E01AE012C0883011F4988303C07C
:1004C0008A3079F41883192F09C08C2F9D2F7BD087
:1004D000182F8F3F19F483E080936300011708F40D
:1004E000102FD0936600C093650005C0662319F0F5
:1004F0008C2F9D2FDFD01093640083EC80936E00CF
:1005000010926D001092860030916D00332309F037
:1005100047C020916300222309F442C080916E00FD
:1005200098E8892780936E00C0916400C93008F074
:10053000C8E0AFE6B0E0CC2339F1233031F46C2FC2
:100540008A2F9B2F78D0C82F1AC0E0916500F091B8
:100550006600213039F4932F9C1768F481918D93B4
:100560009F5FFACF932F9C1730F4C895802D31965A
:100570008D939F5FF8CFF0936600E09365008091C4
:1005800064008C1B809364006C2F8FE690E09EDDEE
:10059000CD5FC0936D00C350C83010F4109263005B
:1005A0008AE084990BC0815011F0849BFCCF882392
:1005B00029F48093790080939E009598DF91CF91E4
:1005C0001F910F910895F92FE82F8181992781308C
:1005D000910561F0823091051CF4892B21F028C02F
:1005E000029791F025C088E090E0089524818581EC
:1005F0009927982F8827820F911D90936C008093E4
:100600006B008FEF90E00895248185819927982FC2
:100610008827820F911D90936A008093690000974C
:1006200021F4909368008093670080E090E0089543
:1006300080E090E00895CF93DF93282F392F40E09A
:1006400050E0C62FDD274C175D077CF5E0916B006D
:10065000F0916C00E032F10540F5809167009091D7
:100660006800E817F9070CF5B32FA22F60EA70E0D5
:10067000E60FF71F80818D934F5F5F4F6F5F7F4F56
:100680004C175D0794F4E0916B00F0916C00242FFF
:10069000352F2E0F3F1F2032310538F4809167002F
:1006A00090916800281739071CF3842F9927DF9150
:1006B000CF910895CF93DF93F92FE82F862F60E035
:1006C00070E0C82FDD276C177D074CF5409169005D
:1006D00050916A004032510510F520916700309129
:1006E000680020323105D8F4B52FA42FA056BF4F93
:1006F00081918D93932F822F019690936800809320
:1007000067006F5F7F4F4F5F5F4F6C177D073CF453
:100710004032510520F4282F392F809748F3DF917C
:10072000CF910895CFEDD0E0DEBFCDBF5EDE68DEB5
:04073000FECFFFCF2A
:02073400D25A97
:00000001FF
