:100000003AC079C052C051C050C04FC04EC04DC060
:100010004CC04BC04AC049C048C047C046C045C09C
:1000200044C043C042C000CDD914F13C28E5A16CC6
:1000300078B5509D89441803550053004200740060
:1000400069006E007900200053005000490004034D
:1000500009040902120001010080320904000000B5
:10006000FF00000012011001FF00000881179F0C23
:1000700005010002000111241FBECFEDCDBF10E02D
:10008000A0E6B0E0EAEEF7E003C0C89531960D9225
:10009000A236B107D1F710E0A2E6B0E001C01D9290
:1000A000AA3AB107E1F799D39FC3AACFDC019FEF2A
:1000B0008FEF46E2F0E018C02D918227E82FEF7015
:1000C000E40F3591E82FE295892F932F3170E327C4
:1000D000EF709295392F9F70307E8327E40F359112
:1000E00093273170932783276A9532F780959095EF
:1000F0008D939D9308950F931F932F93DF93CF9329
:100100000FB70F938299FECF82990BC0829909C0D5
:10011000829907C0829905C0829903C000E40ABF92
:10012000B9C0C0919100DD27CE56DF4F0BE014E13E
:1001300024E0829BE9CF3F934F936F9360B330E805
:1001400003C060B3432B4993442764712627215091
:1001500020B32471A9F137953C3FA0F56227615087
:1001600060B3647137953C3F98F526272150379549
:1001700020B324713C3F90F56227615037953C3F96
:1001800060B36471A0F52627215037953C3FC8F530
:1001900020B324716227615037953C3FB0F50A9532
:1001A00060B37AF064712627215037953C3F88F57B
:1001B00020B324716227615037953C3F10F22DC067
:1001C00031C05FC0612720B324713F774160C6CF43
:1001D0003F77426060B364712127C7CF3F774460A7
:1001E000612720B32471622761503795C8CF3F77CC
:1001F00048602127316060B364712627215037950C
:10020000C6CF3F7740616127C1CF3F77406221274A
:10021000C4CF3F7740646127C9CF3F77406821272B
:1002200000C08FCF30E43ABF0B500195C01BD040C7
:10023000288121FD3AC06981162F1F774091A800BF
:100240001417F9F42936F1F467FB76F400000091F5
:10025000A900002339F140919000442319F54093FF
:10026000A900C5E8D0E038C0009177000023D1F0A4
:10027000409190004423B1F440937700C8E7D0E068
:100280002BC02227209362006F914F913F910AB7B4
:1002900006FD38CF0F910FBFCF91DF912F911F91A6
:1002A0000F911895C1E6D0E016C0217059F3209146
:1002B0006200222339F340919000442399F7009380
:1002C000900020938400009191004BE0401B4093EC
:1002D0009100C0E6D0E001E022B32B7E206111B393
:1002E000146122BB11BB14E130E830FF212722BB8F
:1002F000379547954C3FC0F530FF2127379522BBF6
:1003000047954C3FA8F530FF21273795000022BBC9
:1003100047954C3F78F530FF21273795000022BBE9
:1003200047954C3F48F530FF2127699122BB37950F
:1003300047954C3F18F530FF2127379522BB47954D
:100340004C3F00F530FF21273795479522BB4C3FA6
:10035000D8F430FF21273795362F479522BB4C3FE5
:10036000A8F40A9512F614C02127442722BBC2CF55
:100370002127C5CF2127CBCF2127D1CF2127442724
:1003800022BBD7CF2127DACF2127DFCF2127E5CF07
:100390002B7E22BB6F914F913F9100E40ABFDF910A
:1003A000CF9111B3022F206122BB1B7EDFBFDF91F3
:1003B0002F91000011BB02BB1F910F914F934091F1
:1003C00083004093A8004F91189585B7836085BF3F
:1003D0008BB780648BBF789408950F931F93CF934E
:1003E000DF9360919000662309F46EC080919100C4
:1003F0009927CC27DD27C81BD90BC256DF4F635086
:1004000091E09093630010E0809184008D3209F0B8
:100410004DC00E818F8181110FEF88818076A9F503
:100420008981882319F412E0888338C0853021F44B
:100430008A818093830035C08630F1F482E0809316
:1004400063008B81813019F4C4E6D0E004C08230AF
:1004500021F4C2E5D0E012E121C0833011F58A8198
:10046000882321F4CEE4D0E014E018C08230C9F42F
:10047000C6E3D0E018E112C0883011F4988303C0BD
:100480008A3079F41883192F09C08C2F9D2FC7D07B
:10049000182F8F3F19F483E080936300011708F44D
:1004A000102FD0936600C093650005C0662319F035
:1004B0008C2F9D2F47D11093640083EC809378009C
:1004C000109277001092900030917700332309F05A
:1004D00047C020916300222309F442C08091780034
:1004E00098E8892780937800C0916400C93008F0AB
:1004F000C8E0A9E7B0E0CC2339F1233031F46C2F08
:100500008A2F9B2F07D1C82F1AC0E0916500F09168
:100510006600213039F4932F9C1768F481918D93F4
:100520009F5FFACF932F9C1730F4C895802D31969A
:100530008D939F5FF8CFF0936600E0936500809104
:1005400064008C1B809364006C2F89E790E0AEDD23
:10055000CD5FC0937700C350C83010F41092630091
:100560008AE084990AC0815011F0849BFCCF8823D3
:1005700021F4809383008093A800DF91CF911F9195
:100580000F910895B92FA82FF72FE62F40E05D9126
:1005900020E030E890916700852F832309F0C79A07
:1005A000092E00C000000A94E1F7C69A092E00C087
:1005B00000000A94E1F7220F83992F5FC798C6982D
:1005C000369551F721934F5F443008F30895809199
:1005D0006A0090916B00282F392F019690936B0041
:1005E00080936A0080916E0087FF02C0220F331F44
:1005F00080936F0020FF03C0886080936F00932F6B
:10060000822F892F9927869580937000369527959C
:100610002093710063E770E08FE690E0B3CFF92F8D
:10062000E82F3181332319F488E090E00895848124
:10063000A82FBB27313029F48C91808381E090E092
:1006400008954281323011F44C930FC0242F27704B
:1006500081E090E001C0880F2A95EAF7282F333017
:1006600039F420958C9182238C9380E090E008955A
:10067000343019F48C91822BF7CF353051F44093FC
:1006800067002FE0848181112FE28FEF87BB28BBA9
:10069000ECCF363021F4C59A18BA17BAE6CF88B332
:1006A000882319F3373049F46E2F7F2F8E2F9F2F19
:1006B000029668DF84E090E00895383031F440938A
:1006C0006800838180936900D0CF84819581909365
:1006D0006B0080936A00393011F480E203C03B3034
:1006E00031F480EA80936E008FEF90E0089582816C
:1006F000938190936D0080936C003A3011F480E404
:1007000003C03C3021F480EC80936E00AECF80E0DB
:1007100090E008950F931F93CF93DF93162F00E07F
:10072000061748F4D92FC82F52DF8091760089939D
:100730000F5F0117C8F3812F9927DF91CF911F9188
:100740000F910895EF92FF920F931F93CF93DF9332
:10075000E62EFF24F616D0F5082F192FF12FE02FE3
:1007600081910E2F1F2F8093720031DF80916F00D7
:1007700090E6892780936F00C0E0D0E080916C0004
:1007800090916D00C817D907F0F463E770E08FE629
:1007900090E0F8DE9091760080917200981741F415
:1007A00080916800981721F080916900981759F49A
:1007B00080916700992765E0880F991F6A95E1F796
:1007C000C80FD91FDBCFF394FE1440F2DF91CF9115
:1007D0001F910F91FF90EF900895CFEDD0E0DEBF15
:0A07E000CDBFF3DDFADDFECFFFCF41
:0207EA00D25AE1
:00000001FF
